{
  "contractName": "GoUber",
  "abi": [
    {
      "constant": true,
      "inputs": [],
      "name": "bookingCount",
      "outputs": [
        {
          "name": "",
          "type": "uint256"
        }
      ],
      "payable": false,
      "stateMutability": "view",
      "type": "function"
    },
    {
      "anonymous": false,
      "inputs": [
        {
          "indexed": false,
          "name": "bookingIndex",
          "type": "uint256"
        }
      ],
      "name": "BookingCreated",
      "type": "event"
    },
    {
      "anonymous": false,
      "inputs": [
        {
          "indexed": false,
          "name": "bookingIndex",
          "type": "uint256"
        }
      ],
      "name": "BookingAccepted",
      "type": "event"
    },
    {
      "anonymous": false,
      "inputs": [
        {
          "indexed": false,
          "name": "bookingIndex",
          "type": "uint256"
        }
      ],
      "name": "BookingCompleted",
      "type": "event"
    },
    {
      "anonymous": false,
      "inputs": [
        {
          "indexed": false,
          "name": "bookingIndex",
          "type": "uint256"
        }
      ],
      "name": "BookingCancelled",
      "type": "event"
    },
    {
      "constant": false,
      "inputs": [
        {
          "name": "passengerInfo",
          "type": "string"
        },
        {
          "name": "originLocation",
          "type": "string"
        },
        {
          "name": "destLocation",
          "type": "string"
        },
        {
          "name": "distance",
          "type": "uint256"
        },
        {
          "name": "totalCost",
          "type": "uint256"
        }
      ],
      "name": "createBooking",
      "outputs": [],
      "payable": true,
      "stateMutability": "payable",
      "type": "function"
    },
    {
      "constant": true,
      "inputs": [
        {
          "name": "index",
          "type": "uint256"
        }
      ],
      "name": "getBooking",
      "outputs": [
        {
          "name": "",
          "type": "address"
        },
        {
          "name": "",
          "type": "string"
        },
        {
          "name": "",
          "type": "address"
        },
        {
          "name": "",
          "type": "string"
        },
        {
          "name": "",
          "type": "uint256"
        },
        {
          "name": "",
          "type": "string"
        },
        {
          "name": "",
          "type": "string"
        },
        {
          "name": "",
          "type": "uint256"
        },
        {
          "name": "",
          "type": "string"
        }
      ],
      "payable": false,
      "stateMutability": "view",
      "type": "function"
    },
    {
      "constant": true,
      "inputs": [],
      "name": "getBookingCount",
      "outputs": [
        {
          "name": "",
          "type": "uint256"
        }
      ],
      "payable": false,
      "stateMutability": "view",
      "type": "function"
    },
    {
      "constant": false,
      "inputs": [
        {
          "name": "index",
          "type": "uint256"
        }
      ],
      "name": "cancelBooking",
      "outputs": [],
      "payable": true,
      "stateMutability": "payable",
      "type": "function"
    },
    {
      "constant": false,
      "inputs": [
        {
          "name": "index",
          "type": "uint256"
        },
        {
          "name": "driverInfo",
          "type": "string"
        }
      ],
      "name": "acceptBooking",
      "outputs": [],
      "payable": false,
      "stateMutability": "nonpayable",
      "type": "function"
    },
    {
      "constant": false,
      "inputs": [
        {
          "name": "index",
          "type": "uint256"
        }
      ],
      "name": "completeBooking",
      "outputs": [],
      "payable": false,
      "stateMutability": "nonpayable",
      "type": "function"
    }
  ],
  "bytecode": "0x608060405234801561001057600080fd5b50612387806100206000396000f300608060405260043610610083576000357c0100000000000000000000000000000000000000000000000000000000900463ffffffff1680630dca825e1461008857806310272e18146100a45780631a2b3431146100c05780636a5c841a146100e95780636d7591721461012e578063d67bad5a14610159578063d861c24414610182575b600080fd5b6100a2600480360361009d91908101906120c6565b6101ad565b005b6100be60048036036100b99190810190612007565b610895565b005b3480156100cc57600080fd5b506100e760048036036100e291908101906120c6565b610b41565b005b3480156100f557600080fd5b50610110600480360361010b91908101906120c6565b611229565b60405161012599989796959493929190612197565b60405180910390f35b34801561013a57600080fd5b506101436116bf565b6040516101509190612247565b60405180910390f35b34801561016557600080fd5b50610180600480360361017b91908101906120ef565b6116c5565b005b34801561018e57600080fd5b50610197611d7e565b6040516101a49190612247565b60405180910390f35b6101b5611e78565b6000828154811015156101c457fe5b90600052602060002090600a020161014060405190810160405290816000820160009054906101000a900473ffffffffffffffffffffffffffffffffffffffff1673ffffffffffffffffffffffffffffffffffffffff1673ffffffffffffffffffffffffffffffffffffffff168152602001600182018054600181600116156101000203166002900480601f0160208091040260200160405190810160405280929190818152602001828054600181600116156101000203166002900480156102ce5780601f106102a3576101008083540402835291602001916102ce565b820191906000526020600020905b8154815290600101906020018083116102b157829003601f168201915b505050505081526020016002820160009054906101000a900473ffffffffffffffffffffffffffffffffffffffff1673ffffffffffffffffffffffffffffffffffffffff1673ffffffffffffffffffffffffffffffffffffffff168152602001600382018054600181600116156101000203166002900480601f0160208091040260200160405190810160405280929190818152602001828054600181600116156101000203166002900480156103c65780601f1061039b576101008083540402835291602001916103c6565b820191906000526020600020905b8154815290600101906020018083116103a957829003601f168201915b5050505050815260200160048201548152602001600582018054600181600116156101000203166002900480601f0160208091040260200160405190810160405280929190818152602001828054600181600116156101000203166002900480156104725780601f1061044757610100808354040283529160200191610472565b820191906000526020600020905b81548152906001019060200180831161045557829003601f168201915b50505050508152602001600682018054600181600116156101000203166002900480601f0160208091040260200160405190810160405280929190818152602001828054600181600116156101000203166002900480156105145780601f106104e957610100808354040283529160200191610514565b820191906000526020600020905b8154815290600101906020018083116104f757829003601f168201915b505050505081526020016007820154815260200160088201548152602001600982018054600181600116156101000203166002900480601f0160208091040260200160405190810160405280929190818152602001828054600181600116156101000203166002900480156105ca5780601f1061059f576101008083540402835291602001916105ca565b820191906000526020600020905b8154815290600101906020018083116105ad57829003601f168201915b5050505050815250509050806000015173ffffffffffffffffffffffffffffffffffffffff163373ffffffffffffffffffffffffffffffffffffffff1614801561065457506106538161012001516040805190810160405280600381526020017f6e65770000000000000000000000000000000000000000000000000000000000815250611d8a565b5b151561065f57600080fd5b806000015173ffffffffffffffffffffffffffffffffffffffff166108fc8261010001519081150290604051600060405180830381858888f193505050501580156106ae573d6000803e3d6000fd5b506000816101000181815250506040805190810160405280600981526020017f63616e63656c6c656400000000000000000000000000000000000000000000008152508161012001819052508060008381548110151561070a57fe5b90600052602060002090600a020160008201518160000160006101000a81548173ffffffffffffffffffffffffffffffffffffffff021916908373ffffffffffffffffffffffffffffffffffffffff160217905550602082015181600101908051906020019061077b929190611ef8565b5060408201518160020160006101000a81548173ffffffffffffffffffffffffffffffffffffffff021916908373ffffffffffffffffffffffffffffffffffffffff16021790555060608201518160030190805190602001906107df929190611ef8565b506080820151816004015560a0820151816005019080519060200190610806929190611ef8565b5060c0820151816006019080519060200190610823929190611ef8565b5060e082015181600701556101008201518160080155610120820151816009019080519060200190610856929190611ef8565b509050507ff774c001cb52a3566b767ed6e37c92706acb2b80a3ff6049e2849cd62725d085826040516108899190612247565b60405180910390a15050565b61089d611e78565b81341480156108ac5750600083115b80156108b85750600082115b15156108c357600080fd5b33816000019073ffffffffffffffffffffffffffffffffffffffff16908173ffffffffffffffffffffffffffffffffffffffff16815250508581602001819052506020604051908101604052806000815250816060018190525042816080018181525050848160a00181905250838160c00181905250818160e001818152505081816101000181815250506040805190810160405280600381526020017f6e657700000000000000000000000000000000000000000000000000000000008152508161012001819052506000819080600181540180825580915050906001820390600052602060002090600a02016000909192909190915060008201518160000160006101000a81548173ffffffffffffffffffffffffffffffffffffffff021916908373ffffffffffffffffffffffffffffffffffffffff1602179055506020820151816001019080519060200190610a1e929190611ef8565b5060408201518160020160006101000a81548173ffffffffffffffffffffffffffffffffffffffff021916908373ffffffffffffffffffffffffffffffffffffffff1602179055506060820151816003019080519060200190610a82929190611ef8565b506080820151816004015560a0820151816005019080519060200190610aa9929190611ef8565b5060c0820151816006019080519060200190610ac6929190611ef8565b5060e082015181600701556101008201518160080155610120820151816009019080519060200190610af9929190611ef8565b505050507feff0c44eb012c0a3b8af8da61b04c9c7ee828fe9c5746869998c63319a21067c600080549050604051610b319190612247565b60405180910390a1505050505050565b610b49611e78565b600082815481101515610b5857fe5b90600052602060002090600a020161014060405190810160405290816000820160009054906101000a900473ffffffffffffffffffffffffffffffffffffffff1673ffffffffffffffffffffffffffffffffffffffff1673ffffffffffffffffffffffffffffffffffffffff168152602001600182018054600181600116156101000203166002900480601f016020809104026020016040519081016040528092919081815260200182805460018160011615610100020316600290048015610c625780601f10610c3757610100808354040283529160200191610c62565b820191906000526020600020905b815481529060010190602001808311610c4557829003601f168201915b505050505081526020016002820160009054906101000a900473ffffffffffffffffffffffffffffffffffffffff1673ffffffffffffffffffffffffffffffffffffffff1673ffffffffffffffffffffffffffffffffffffffff168152602001600382018054600181600116156101000203166002900480601f016020809104026020016040519081016040528092919081815260200182805460018160011615610100020316600290048015610d5a5780601f10610d2f57610100808354040283529160200191610d5a565b820191906000526020600020905b815481529060010190602001808311610d3d57829003601f168201915b5050505050815260200160048201548152602001600582018054600181600116156101000203166002900480601f016020809104026020016040519081016040528092919081815260200182805460018160011615610100020316600290048015610e065780601f10610ddb57610100808354040283529160200191610e06565b820191906000526020600020905b815481529060010190602001808311610de957829003601f168201915b50505050508152602001600682018054600181600116156101000203166002900480601f016020809104026020016040519081016040528092919081815260200182805460018160011615610100020316600290048015610ea85780601f10610e7d57610100808354040283529160200191610ea8565b820191906000526020600020905b815481529060010190602001808311610e8b57829003601f168201915b505050505081526020016007820154815260200160088201548152602001600982018054600181600116156101000203166002900480601f016020809104026020016040519081016040528092919081815260200182805460018160011615610100020316600290048015610f5e5780601f10610f3357610100808354040283529160200191610f5e565b820191906000526020600020905b815481529060010190602001808311610f4157829003601f168201915b5050505050815250509050806000015173ffffffffffffffffffffffffffffffffffffffff163373ffffffffffffffffffffffffffffffffffffffff16148015610fe85750610fe78161012001516040805190810160405280600681526020017f6f6e747269700000000000000000000000000000000000000000000000000000815250611d8a565b5b1515610ff357600080fd5b806040015173ffffffffffffffffffffffffffffffffffffffff166108fc8261010001519081150290604051600060405180830381858888f19350505050158015611042573d6000803e3d6000fd5b506040805190810160405280600981526020017f636f6d706c6574656400000000000000000000000000000000000000000000008152508161012001819052506000816101000181815250508060008381548110151561109e57fe5b90600052602060002090600a020160008201518160000160006101000a81548173ffffffffffffffffffffffffffffffffffffffff021916908373ffffffffffffffffffffffffffffffffffffffff160217905550602082015181600101908051906020019061110f929190611ef8565b5060408201518160020160006101000a81548173ffffffffffffffffffffffffffffffffffffffff021916908373ffffffffffffffffffffffffffffffffffffffff1602179055506060820151816003019080519060200190611173929190611ef8565b506080820151816004015560a082015181600501908051906020019061119a929190611ef8565b5060c08201518160060190805190602001906111b7929190611ef8565b5060e0820151816007015561010082015181600801556101208201518160090190805190602001906111ea929190611ef8565b509050507fe70f5cb5ecde9644c195a97cf45a506de023d1d170cd972f04441fafd993f1508260405161121d9190612247565b60405180910390a15050565b6000606060006060600060608060006060611242611e78565b60008b81548110151561125157fe5b90600052602060002090600a020161014060405190810160405290816000820160009054906101000a900473ffffffffffffffffffffffffffffffffffffffff1673ffffffffffffffffffffffffffffffffffffffff1673ffffffffffffffffffffffffffffffffffffffff168152602001600182018054600181600116156101000203166002900480601f01602080910402602001604051908101604052809291908181526020018280546001816001161561010002031660029004801561135b5780601f106113305761010080835404028352916020019161135b565b820191906000526020600020905b81548152906001019060200180831161133e57829003601f168201915b505050505081526020016002820160009054906101000a900473ffffffffffffffffffffffffffffffffffffffff1673ffffffffffffffffffffffffffffffffffffffff1673ffffffffffffffffffffffffffffffffffffffff168152602001600382018054600181600116156101000203166002900480601f0160208091040260200160405190810160405280929190818152602001828054600181600116156101000203166002900480156114535780601f1061142857610100808354040283529160200191611453565b820191906000526020600020905b81548152906001019060200180831161143657829003601f168201915b5050505050815260200160048201548152602001600582018054600181600116156101000203166002900480601f0160208091040260200160405190810160405280929190818152602001828054600181600116156101000203166002900480156114ff5780601f106114d4576101008083540402835291602001916114ff565b820191906000526020600020905b8154815290600101906020018083116114e257829003601f168201915b50505050508152602001600682018054600181600116156101000203166002900480601f0160208091040260200160405190810160405280929190818152602001828054600181600116156101000203166002900480156115a15780601f10611576576101008083540402835291602001916115a1565b820191906000526020600020905b81548152906001019060200180831161158457829003601f168201915b505050505081526020016007820154815260200160088201548152602001600982018054600181600116156101000203166002900480601f0160208091040260200160405190810160405280929190818152602001828054600181600116156101000203166002900480156116575780601f1061162c57610100808354040283529160200191611657565b820191906000526020600020905b81548152906001019060200180831161163a57829003601f168201915b5050505050815250509050806000015181602001518260400151836060015184608001518560a001518660c001518760e00151886101200151879750859550839350829250809050995099509950995099509950995099509950509193959799909294969850565b60015481565b6116cd611e78565b6000838154811015156116dc57fe5b90600052602060002090600a020161014060405190810160405290816000820160009054906101000a900473ffffffffffffffffffffffffffffffffffffffff1673ffffffffffffffffffffffffffffffffffffffff1673ffffffffffffffffffffffffffffffffffffffff168152602001600182018054600181600116156101000203166002900480601f0160208091040260200160405190810160405280929190818152602001828054600181600116156101000203166002900480156117e65780601f106117bb576101008083540402835291602001916117e6565b820191906000526020600020905b8154815290600101906020018083116117c957829003601f168201915b505050505081526020016002820160009054906101000a900473ffffffffffffffffffffffffffffffffffffffff1673ffffffffffffffffffffffffffffffffffffffff1673ffffffffffffffffffffffffffffffffffffffff168152602001600382018054600181600116156101000203166002900480601f0160208091040260200160405190810160405280929190818152602001828054600181600116156101000203166002900480156118de5780601f106118b3576101008083540402835291602001916118de565b820191906000526020600020905b8154815290600101906020018083116118c157829003601f168201915b5050505050815260200160048201548152602001600582018054600181600116156101000203166002900480601f01602080910402602001604051908101604052809291908181526020018280546001816001161561010002031660029004801561198a5780601f1061195f5761010080835404028352916020019161198a565b820191906000526020600020905b81548152906001019060200180831161196d57829003601f168201915b50505050508152602001600682018054600181600116156101000203166002900480601f016020809104026020016040519081016040528092919081815260200182805460018160011615610100020316600290048015611a2c5780601f10611a0157610100808354040283529160200191611a2c565b820191906000526020600020905b815481529060010190602001808311611a0f57829003601f168201915b505050505081526020016007820154815260200160088201548152602001600982018054600181600116156101000203166002900480601f016020809104026020016040519081016040528092919081815260200182805460018160011615610100020316600290048015611ae25780601f10611ab757610100808354040283529160200191611ae2565b820191906000526020600020905b815481529060010190602001808311611ac557829003601f168201915b50505050508152505090506000816040015173ffffffffffffffffffffffffffffffffffffffff16148015611b575750611b568161012001516040805190810160405280600381526020017f6e65770000000000000000000000000000000000000000000000000000000000815250611d8a565b5b1515611b6257600080fd5b33816040019073ffffffffffffffffffffffffffffffffffffffff16908173ffffffffffffffffffffffffffffffffffffffff16815250508181606001819052506040805190810160405280600681526020017f6f6e74726970000000000000000000000000000000000000000000000000000081525081610120018190525080600084815481101515611bf257fe5b90600052602060002090600a020160008201518160000160006101000a81548173ffffffffffffffffffffffffffffffffffffffff021916908373ffffffffffffffffffffffffffffffffffffffff1602179055506020820151816001019080519060200190611c63929190611ef8565b5060408201518160020160006101000a81548173ffffffffffffffffffffffffffffffffffffffff021916908373ffffffffffffffffffffffffffffffffffffffff1602179055506060820151816003019080519060200190611cc7929190611ef8565b506080820151816004015560a0820151816005019080519060200190611cee929190611ef8565b5060c0820151816006019080519060200190611d0b929190611ef8565b5060e082015181600701556101008201518160080155610120820151816009019080519060200190611d3e929190611ef8565b509050507fae49cce08cd6f27fffbd586d871496cddf9f50db908d9ca4cf48a84b88d55e6b83604051611d719190612247565b60405180910390a1505050565b60008080549050905090565b600081518351141515611da05760009050611e72565b816040518082805190602001908083835b602083101515611dd65780518252602082019150602081019050602083039250611db1565b6001836020036101000a038019825116818451168082178552505050505050905001915050604051809103902060001916836040518082805190602001908083835b602083101515611e3d5780518252602082019150602081019050602083039250611e18565b6001836020036101000a0380198251168184511680821785525050505050509050019150506040518091039020600019161490505b92915050565b61014060405190810160405280600073ffffffffffffffffffffffffffffffffffffffff16815260200160608152602001600073ffffffffffffffffffffffffffffffffffffffff168152602001606081526020016000815260200160608152602001606081526020016000815260200160008152602001606081525090565b828054600181600116156101000203166002900490600052602060002090601f016020900481019282601f10611f3957805160ff1916838001178555611f67565b82800160010185558215611f67579182015b82811115611f66578251825591602001919060010190611f4b565b5b509050611f749190611f78565b5090565b611f9a91905b80821115611f96576000816000905550600101611f7e565b5090565b90565b600082601f8301121515611fb057600080fd5b8135611fc3611fbe8261228f565b612262565b91508082526020830160208301858383011115611fdf57600080fd5b611fea8382846122fa565b50505092915050565b6000611fff82356122f0565b905092915050565b600080600080600060a0868803121561201f57600080fd5b600086013567ffffffffffffffff81111561203957600080fd5b61204588828901611f9d565b955050602086013567ffffffffffffffff81111561206257600080fd5b61206e88828901611f9d565b945050604086013567ffffffffffffffff81111561208b57600080fd5b61209788828901611f9d565b93505060606120a888828901611ff3565b92505060806120b988828901611ff3565b9150509295509295909350565b6000602082840312156120d857600080fd5b60006120e684828501611ff3565b91505092915050565b6000806040838503121561210257600080fd5b600061211085828601611ff3565b925050602083013567ffffffffffffffff81111561212d57600080fd5b61213985828601611f9d565b9150509250929050565b61214c816122c6565b82525050565b600061215d826122bb565b808452612171816020860160208601612309565b61217a8161233c565b602085010191505092915050565b612191816122e6565b82525050565b6000610120820190506121ad600083018c612143565b81810360208301526121bf818b612152565b90506121ce604083018a612143565b81810360608301526121e08189612152565b90506121ef6080830188612188565b81810360a08301526122018187612152565b905081810360c08301526122158186612152565b905061222460e0830185612188565b8181036101008301526122378184612152565b90509a9950505050505050505050565b600060208201905061225c6000830184612188565b92915050565b6000604051905081810181811067ffffffffffffffff8211171561228557600080fd5b8060405250919050565b600067ffffffffffffffff8211156122a657600080fd5b601f19601f8301169050602081019050919050565b600081519050919050565b600073ffffffffffffffffffffffffffffffffffffffff82169050919050565b6000819050919050565b6000819050919050565b82818337600083830152505050565b60005b8381101561232757808201518184015260208101905061230c565b83811115612336576000848401525b50505050565b6000601f19601f83011690509190505600a265627a7a72305820be339fa44b2368a82e0b75f578abfba2c9914a29ae83118a6305e8a65677d8636c6578706572696d656e74616cf50037",
  "source": "pragma solidity ^0.4.4;\r\npragma experimental ABIEncoderV2;\r\n\r\n\r\ncontract GoUber {\r\n \r\n    struct Booking {\r\n        address passengerAddress;\r\n        string passengerInfo;\r\n        address driverAddress;\r\n        string driverInfo;\r\n        uint createdAt;\r\n        string originLocation;\r\n        string destLocation;\r\n        uint totalCost;\r\n        uint passengerPaid;\r\n        string status; // new, cancelled, accepted, ontrip, completed\r\n    }\r\n   \r\n    Booking[] bookingList;\r\n    uint public bookingCount;\r\n\r\n    // declare events\r\n    event BookingCreated(uint bookingIndex);\r\n    event BookingAccepted(uint bookingIndex);\r\n    event BookingCompleted(uint bookingIndex);\r\n    event BookingCancelled(uint bookingIndex);\r\n   \r\n    // passenger can create a booking\r\n    function createBooking(string memory passengerInfo, string memory originLocation, string memory destLocation, uint distance, uint totalCost) \r\n        public payable {\r\n\r\n        // validation\r\n        require(msg.value == totalCost && distance > 0 && totalCost > 0);\r\n\r\n        Booking memory booking;\r\n        booking.passengerAddress = msg.sender;\r\n        booking.passengerInfo = passengerInfo;\r\n        //booking.driverAddress = 0x0;\r\n        booking.driverInfo = \"\";\r\n        booking.createdAt = block.timestamp;\r\n        booking.originLocation = originLocation;\r\n        booking.destLocation = destLocation;\r\n        booking.totalCost = totalCost;\r\n        booking.passengerPaid = totalCost;\r\n        booking.status = \"new\";\r\n\r\n        bookingList.push(booking);\r\n\r\n        emit BookingCreated(bookingList.length);\r\n    }\r\n\r\n    function getBooking(uint index) public view returns (address, string memory, address, string memory,\r\n        uint, string memory, string memory, uint, string memory) {\r\n\r\n        Booking memory booking = bookingList[index];\r\n        return (\r\n            booking.passengerAddress,\r\n            booking.passengerInfo,\r\n            booking.driverAddress,\r\n            booking.driverInfo,\r\n            booking.createdAt,\r\n            booking.originLocation,\r\n            booking.destLocation,\r\n            booking.totalCost,\r\n            booking.status\r\n        );\r\n    }\r\n\r\n    function getBookingCount() public view returns(uint) {\r\n        return bookingList.length;\r\n    }\r\n  \r\n    // passenger can cancel booking, cost will be refund\r\n    function cancelBooking(uint index) public payable {\r\n        Booking memory booking = bookingList[index];\r\n\r\n        // validation\r\n        require(msg.sender == booking.passengerAddress && compareStrings(booking.status, \"new\"));\r\n       \r\n        booking.passengerAddress.transfer(booking.passengerPaid);\r\n        booking.passengerPaid = 0;\r\n        booking.status = \"cancelled\";\r\n\r\n        bookingList[index] = booking;\r\n\r\n        emit BookingCancelled(index);\r\n    }\r\n\r\n    // driver accepts booking created from passenger\r\n    function acceptBooking(uint index, string memory driverInfo) public {\r\n        Booking memory booking = bookingList[index];\r\n\r\n        // validation\r\n        require(booking.driverAddress == 0x0 && compareStrings(booking.status, \"new\"));\r\n    \r\n        booking.driverAddress = msg.sender;\r\n        booking.driverInfo = driverInfo;\r\n        booking.status = \"ontrip\"; \r\n\r\n        bookingList[index] = booking;\r\n\r\n        emit BookingAccepted(index);\r\n    }\r\n\r\n    // passenger must to confirm trip completed\r\n    function completeBooking(uint index) public {\r\n        Booking memory booking = bookingList[index];\r\n\r\n        // validation\r\n        require(msg.sender == booking.passengerAddress && compareStrings(booking.status, \"ontrip\"));\r\n       \r\n        booking.driverAddress.transfer(booking.passengerPaid);\r\n        booking.status = \"completed\";\r\n        booking.passengerPaid = 0;\r\n\r\n        bookingList[index] = booking;\r\n\t\t\r\n        emit BookingCompleted(index);\r\n    }\r\n\r\n    function compareStrings(string memory a, string memory b) internal returns (bool) {\r\n        if(bytes(a).length != bytes(b).length) {\r\n            return false;\r\n        } else {\r\n            return keccak256(a) == keccak256(b);\r\n        }\r\n    }\r\n}\r\n",
  "sourcePath": "C:\\Users\\trietdvn\\Gitlab\\GoUber\\contracts\\GoUber.sol",
  "compiler": {
    "name": "solc",
    "version": "0.4.24+commit.e67f0147.Emscripten.clang"
  },
  "schemaVersion": "2.0.1",
  "updatedAt": "2018-12-03T16:02:44.951Z"
}