{
  "contractName": "GoUber",
  "abi": [
    {
      "anonymous": false,
      "inputs": [
        {
          "indexed": false,
          "name": "bookingIndex",
          "type": "uint256"
        }
      ],
      "name": "BookingCreated",
      "type": "event"
    },
    {
      "anonymous": false,
      "inputs": [
        {
          "indexed": false,
          "name": "bookingIndex",
          "type": "uint256"
        }
      ],
      "name": "BookingAccepted",
      "type": "event"
    },
    {
      "anonymous": false,
      "inputs": [
        {
          "indexed": false,
          "name": "bookingIndex",
          "type": "uint256"
        }
      ],
      "name": "BookingCompleted",
      "type": "event"
    },
    {
      "anonymous": false,
      "inputs": [
        {
          "indexed": false,
          "name": "bookingIndex",
          "type": "uint256"
        }
      ],
      "name": "BookingCancelled",
      "type": "event"
    },
    {
      "constant": false,
      "inputs": [
        {
          "name": "passengerInfo",
          "type": "string"
        },
        {
          "name": "originLocation",
          "type": "string"
        },
        {
          "name": "destLocation",
          "type": "string"
        }
      ],
      "name": "createBooking",
      "outputs": [],
      "payable": true,
      "stateMutability": "payable",
      "type": "function"
    },
    {
      "constant": true,
      "inputs": [
        {
          "name": "index",
          "type": "uint256"
        }
      ],
      "name": "getBooking",
      "outputs": [
        {
          "name": "",
          "type": "address"
        },
        {
          "name": "",
          "type": "string"
        },
        {
          "name": "",
          "type": "address"
        },
        {
          "name": "",
          "type": "string"
        },
        {
          "name": "",
          "type": "uint256"
        },
        {
          "name": "",
          "type": "string"
        },
        {
          "name": "",
          "type": "string"
        },
        {
          "name": "",
          "type": "uint256"
        },
        {
          "name": "",
          "type": "string"
        }
      ],
      "payable": false,
      "stateMutability": "view",
      "type": "function"
    },
    {
      "constant": true,
      "inputs": [],
      "name": "getBookingCount",
      "outputs": [
        {
          "name": "",
          "type": "uint256"
        }
      ],
      "payable": false,
      "stateMutability": "view",
      "type": "function"
    },
    {
      "constant": false,
      "inputs": [
        {
          "name": "index",
          "type": "uint256"
        }
      ],
      "name": "cancelBooking",
      "outputs": [],
      "payable": false,
      "stateMutability": "nonpayable",
      "type": "function"
    },
    {
      "constant": false,
      "inputs": [
        {
          "name": "index",
          "type": "uint256"
        },
        {
          "name": "driverInfo",
          "type": "string"
        }
      ],
      "name": "acceptBooking",
      "outputs": [],
      "payable": false,
      "stateMutability": "nonpayable",
      "type": "function"
    },
    {
      "constant": false,
      "inputs": [
        {
          "name": "index",
          "type": "uint256"
        }
      ],
      "name": "completeBooking",
      "outputs": [],
      "payable": false,
      "stateMutability": "nonpayable",
      "type": "function"
    }
  ],
  "bytecode": "0x608060405234801561001057600080fd5b5061191d806100206000396000f300608060405260043610610078576000357c0100000000000000000000000000000000000000000000000000000000900463ffffffff1680630dca825e1461007d5780631969efc1146100aa5780631a2b3431146101925780636a5c841a146101bf578063d67bad5a14610489578063d861c244146104fc575b600080fd5b34801561008957600080fd5b506100a860048036038101908080359060200190929190505050610527565b005b610190600480360381019080803590602001908201803590602001908080601f0160208091040260200160405190810160405280939291908181526020018383808284378201915050505050509192919290803590602001908201803590602001908080601f0160208091040260200160405190810160405280939291908181526020018383808284378201915050505050509192919290803590602001908201803590602001908080601f0160208091040260200160405190810160405280939291908181526020018383808284378201915050505050509192919290505050610854565b005b34801561019e57600080fd5b506101bd60048036038101908080359060200190929190505050610aac565b005b3480156101cb57600080fd5b506101ea60048036038101908080359060200190929190505050610dd9565b604051808a73ffffffffffffffffffffffffffffffffffffffff1673ffffffffffffffffffffffffffffffffffffffff168152602001806020018973ffffffffffffffffffffffffffffffffffffffff1673ffffffffffffffffffffffffffffffffffffffff1681526020018060200188815260200180602001806020018781526020018060200186810386528e818151815260200191508051906020019080838360005b838110156102aa57808201518184015260208101905061028f565b50505050905090810190601f1680156102d75780820380516001836020036101000a031916815260200191505b5086810385528c818151815260200191508051906020019080838360005b838110156103105780820151818401526020810190506102f5565b50505050905090810190601f16801561033d5780820380516001836020036101000a031916815260200191505b5086810384528a818151815260200191508051906020019080838360005b8381101561037657808201518184015260208101905061035b565b50505050905090810190601f1680156103a35780820380516001836020036101000a031916815260200191505b50868103835289818151815260200191508051906020019080838360005b838110156103dc5780820151818401526020810190506103c1565b50505050905090810190601f1680156104095780820380516001836020036101000a031916815260200191505b50868103825287818151815260200191508051906020019080838360005b83811015610442578082015181840152602081019050610427565b50505050905090810190601f16801561046f5780820380516001836020036101000a031916815260200191505b509e50505050505050505050505050505060405180910390f35b34801561049557600080fd5b506104fa60048036038101908080359060200190929190803590602001908201803590602001908080601f0160208091040260200160405190810160405280939291908181526020018383808284378201915050505050509192919290505050611265565b005b34801561050857600080fd5b50610511611581565b6040518082815260200191505060405180910390f35b60008181548110151561053657fe5b906000526020600020906009020160000160009054906101000a900473ffffffffffffffffffffffffffffffffffffffff1673ffffffffffffffffffffffffffffffffffffffff163373ffffffffffffffffffffffffffffffffffffffff1614801561069557506106946000828154811015156105af57fe5b90600052602060002090600902016008018054600181600116156101000203166002900480601f0160208091040260200160405190810160405280929190818152602001828054600181600116156101000203166002900480156106545780601f1061062957610100808354040283529160200191610654565b820191906000526020600020905b81548152906001019060200180831161063757829003601f168201915b50505050506040805190810160405280600381526020017f6e6577000000000000000000000000000000000000000000000000000000000081525061158d565b5b1515610709576040517f08c379a00000000000000000000000000000000000000000000000000000000081526004018080602001828103825260128152602001807f76616c69646174696f6e206661696c65642e000000000000000000000000000081525060200191505060405180910390fd5b60008181548110151561071857fe5b906000526020600020906009020160000160009054906101000a900473ffffffffffffffffffffffffffffffffffffffff1673ffffffffffffffffffffffffffffffffffffffff166108fc60008381548110151561077257fe5b9060005260206000209060090201600701549081150290604051600060405180830381858888f193505050501580156107af573d6000803e3d6000fd5b506040805190810160405280600981526020017f63616e63656c6c656400000000000000000000000000000000000000000000008152506000828154811015156107f557fe5b90600052602060002090600902016008019080519060200190610819929190611753565b507ff774c001cb52a3566b767ed6e37c92706acb2b80a3ff6049e2849cd62725d085816040518082815260200191505060405180910390a150565b6000610120604051908101604052803373ffffffffffffffffffffffffffffffffffffffff168152602001858152602001600073ffffffffffffffffffffffffffffffffffffffff168152602001602060405190810160405280600081525081526020014281526020018481526020018381526020013481526020016040805190810160405280600381526020017f6e657700000000000000000000000000000000000000000000000000000000008152508152509080600181540180825580915050906001820390600052602060002090600902016000909192909190915060008201518160000160006101000a81548173ffffffffffffffffffffffffffffffffffffffff021916908373ffffffffffffffffffffffffffffffffffffffff16021790555060208201518160010190805190602001906109979291906117d3565b5060408201518160020160006101000a81548173ffffffffffffffffffffffffffffffffffffffff021916908373ffffffffffffffffffffffffffffffffffffffff16021790555060608201518160030190805190602001906109fb9291906117d3565b506080820151816004015560a0820151816005019080519060200190610a229291906117d3565b5060c0820151816006019080519060200190610a3f9291906117d3565b5060e08201518160070155610100820151816008019080519060200190610a679291906117d3565b505050507feff0c44eb012c0a3b8af8da61b04c9c7ee828fe9c5746869998c63319a21067c6000805490506040518082815260200191505060405180910390a1505050565b600081815481101515610abb57fe5b906000526020600020906009020160000160009054906101000a900473ffffffffffffffffffffffffffffffffffffffff1673ffffffffffffffffffffffffffffffffffffffff163373ffffffffffffffffffffffffffffffffffffffff16148015610c1a5750610c19600082815481101515610b3457fe5b90600052602060002090600902016008018054600181600116156101000203166002900480601f016020809104026020016040519081016040528092919081815260200182805460018160011615610100020316600290048015610bd95780601f10610bae57610100808354040283529160200191610bd9565b820191906000526020600020905b815481529060010190602001808311610bbc57829003601f168201915b50505050506040805190810160405280600681526020017f6f6e74726970000000000000000000000000000000000000000000000000000081525061158d565b5b1515610c8e576040517f08c379a00000000000000000000000000000000000000000000000000000000081526004018080602001828103825260128152602001807f76616c69646174696f6e206661696c65642e000000000000000000000000000081525060200191505060405180910390fd5b600081815481101515610c9d57fe5b906000526020600020906009020160020160009054906101000a900473ffffffffffffffffffffffffffffffffffffffff1673ffffffffffffffffffffffffffffffffffffffff166108fc600083815481101515610cf757fe5b9060005260206000209060090201600701549081150290604051600060405180830381858888f19350505050158015610d34573d6000803e3d6000fd5b506040805190810160405280600981526020017f636f6d706c657465640000000000000000000000000000000000000000000000815250600082815481101515610d7a57fe5b90600052602060002090600902016008019080519060200190610d9e929190611753565b507fe70f5cb5ecde9644c195a97cf45a506de023d1d170cd972f04441fafd993f150816040518082815260200191505060405180910390a150565b6000606060006060600060608060006060610df2611853565b60008b815481101515610e0157fe5b906000526020600020906009020161012060405190810160405290816000820160009054906101000a900473ffffffffffffffffffffffffffffffffffffffff1673ffffffffffffffffffffffffffffffffffffffff1673ffffffffffffffffffffffffffffffffffffffff168152602001600182018054600181600116156101000203166002900480601f016020809104026020016040519081016040528092919081815260200182805460018160011615610100020316600290048015610f0b5780601f10610ee057610100808354040283529160200191610f0b565b820191906000526020600020905b815481529060010190602001808311610eee57829003601f168201915b505050505081526020016002820160009054906101000a900473ffffffffffffffffffffffffffffffffffffffff1673ffffffffffffffffffffffffffffffffffffffff1673ffffffffffffffffffffffffffffffffffffffff168152602001600382018054600181600116156101000203166002900480601f0160208091040260200160405190810160405280929190818152602001828054600181600116156101000203166002900480156110035780601f10610fd857610100808354040283529160200191611003565b820191906000526020600020905b815481529060010190602001808311610fe657829003601f168201915b5050505050815260200160048201548152602001600582018054600181600116156101000203166002900480601f0160208091040260200160405190810160405280929190818152602001828054600181600116156101000203166002900480156110af5780601f10611084576101008083540402835291602001916110af565b820191906000526020600020905b81548152906001019060200180831161109257829003601f168201915b50505050508152602001600682018054600181600116156101000203166002900480601f0160208091040260200160405190810160405280929190818152602001828054600181600116156101000203166002900480156111515780601f1061112657610100808354040283529160200191611151565b820191906000526020600020905b81548152906001019060200180831161113457829003601f168201915b5050505050815260200160078201548152602001600882018054600181600116156101000203166002900480601f0160208091040260200160405190810160405280929190818152602001828054600181600116156101000203166002900480156111fd5780601f106111d2576101008083540402835291602001916111fd565b820191906000526020600020905b8154815290600101906020018083116111e057829003601f168201915b5050505050815250509050806000015181602001518260400151836060015184608001518560a001518660c001518760e00151886101000151879750859550839350829250809050995099509950995099509950995099509950509193959799909294969850565b600073ffffffffffffffffffffffffffffffffffffffff1660008381548110151561128c57fe5b906000526020600020906009020160020160009054906101000a900473ffffffffffffffffffffffffffffffffffffffff1673ffffffffffffffffffffffffffffffffffffffff161480156113d457506113d36000838154811015156112ee57fe5b90600052602060002090600902016008018054600181600116156101000203166002900480601f0160208091040260200160405190810160405280929190818152602001828054600181600116156101000203166002900480156113935780601f1061136857610100808354040283529160200191611393565b820191906000526020600020905b81548152906001019060200180831161137657829003601f168201915b50505050506040805190810160405280600381526020017f6e6577000000000000000000000000000000000000000000000000000000000081525061158d565b5b1515611448576040517f08c379a00000000000000000000000000000000000000000000000000000000081526004018080602001828103825260128152602001807f76616c69646174696f6e206661696c65642e000000000000000000000000000081525060200191505060405180910390fd5b3360008381548110151561145857fe5b906000526020600020906009020160020160006101000a81548173ffffffffffffffffffffffffffffffffffffffff021916908373ffffffffffffffffffffffffffffffffffffffff160217905550806000838154811015156114b757fe5b906000526020600020906009020160030190805190602001906114db929190611753565b506040805190810160405280600681526020017f6f6e74726970000000000000000000000000000000000000000000000000000081525060008381548110151561152157fe5b90600052602060002090600902016008019080519060200190611545929190611753565b507fae49cce08cd6f27fffbd586d871496cddf9f50db908d9ca4cf48a84b88d55e6b826040518082815260200191505060405180910390a15050565b60008080549050905090565b6000815183511415156115a3576000905061174d565b816040516020018082805190602001908083835b6020831015156115dc57805182526020820191506020810190506020830392506115b7565b6001836020036101000a0380198251168184511680821785525050505050509050019150506040516020818303038152906040526040518082805190602001908083835b6020831015156116455780518252602082019150602081019050602083039250611620565b6001836020036101000a038019825116818451168082178552505050505050905001915050604051809103902060001916836040516020018082805190602001908083835b6020831015156116af578051825260208201915060208101905060208303925061168a565b6001836020036101000a0380198251168184511680821785525050505050509050019150506040516020818303038152906040526040518082805190602001908083835b60208310151561171857805182526020820191506020810190506020830392506116f3565b6001836020036101000a0380198251168184511680821785525050505050509050019150506040518091039020600019161490505b92915050565b828054600181600116156101000203166002900490600052602060002090601f016020900481019282601f1061179457805160ff19168380011785556117c2565b828001600101855582156117c2579182015b828111156117c15782518255916020019190600101906117a6565b5b5090506117cf91906118cc565b5090565b828054600181600116156101000203166002900490600052602060002090601f016020900481019282601f1061181457805160ff1916838001178555611842565b82800160010185558215611842579182015b82811115611841578251825591602001919060010190611826565b5b50905061184f91906118cc565b5090565b61012060405190810160405280600073ffffffffffffffffffffffffffffffffffffffff16815260200160608152602001600073ffffffffffffffffffffffffffffffffffffffff1681526020016060815260200160008152602001606081526020016060815260200160008152602001606081525090565b6118ee91905b808211156118ea5760008160009055506001016118d2565b5090565b905600a165627a7a72305820124abc7486fa488e466208ba289e291acb095824e9e15dfa1739343195fe42110029",
  "source": "pragma solidity ^0.4.24;\r\n\r\ncontract GoUber {\r\n    struct Booking {\r\n        address passengerAddress;\r\n        string passengerInfo;\r\n        address driverAddress;\r\n        string driverInfo;\r\n        uint createdAt;\r\n        string originLocation;\r\n        string destLocation;\r\n        uint totalCost;\r\n        string status; // new, cancelled, accepted, ontrip, completed\r\n    }\r\n   \r\n    Booking[] internal bookings;\r\n\r\n    // declare events\r\n    event BookingCreated(uint bookingIndex);\r\n    event BookingAccepted(uint bookingIndex);\r\n    event BookingCompleted(uint bookingIndex);\r\n    event BookingCancelled(uint bookingIndex);\r\n   \r\n    // passenger can create a booking\r\n    function createBooking(string memory passengerInfo, string memory originLocation, string memory destLocation) \r\n        public payable {\r\n        // validation\r\n        //require(msg.value == totalCost && distance > 0 && totalCost > 0, \"validation failed.\");\r\n\r\n        bookings.push(Booking(\r\n            msg.sender, passengerInfo, address(0x0), \"\", block.timestamp,\r\n            originLocation, destLocation, msg.value, \"new\"));\r\n\r\n        emit BookingCreated(bookings.length);\r\n    }\r\n\r\n    function getBooking(uint index) public view returns (address, string memory, address, string memory,\r\n        uint, string memory, string memory, uint, string memory) {\r\n        Booking memory book = bookings[index];\r\n        return (\r\n            book.passengerAddress,\r\n            book.passengerInfo,\r\n            book.driverAddress,\r\n            book.driverInfo,\r\n            book.createdAt,\r\n            book.originLocation,\r\n            book.destLocation,\r\n            book.totalCost,\r\n            book.status\r\n        );\r\n    }\r\n\r\n    function getBookingCount() public view returns(uint) {\r\n        return bookings.length;\r\n    }\r\n  \r\n    // passenger can cancel booking, cost will be refund\r\n    function cancelBooking(uint index) public {\r\n        // validation\r\n        require(msg.sender == bookings[index].passengerAddress && compareStrings(bookings[index].status, \"new\"), \"validation failed.\");\r\n        bookings[index].passengerAddress.transfer(bookings[index].totalCost);\r\n        bookings[index].status = \"cancelled\";\r\n        emit BookingCancelled(index);\r\n    }\r\n\r\n    // driver accepts booking created from passenger\r\n    function acceptBooking(uint index, string memory driverInfo) public {\r\n        // validation\r\n        require(bookings[index].driverAddress == address(0x0) && compareStrings(bookings[index].status, \"new\"), \"validation failed.\");\r\n        bookings[index].driverAddress = msg.sender;\r\n        bookings[index].driverInfo = driverInfo;\r\n        bookings[index].status = \"ontrip\"; \r\n        emit BookingAccepted(index);\r\n    }\r\n\r\n    // passenger must to confirm trip completed\r\n    function completeBooking(uint index) public {\r\n        // // validation\r\n        require(msg.sender == bookings[index].passengerAddress && compareStrings(bookings[index].status, \"ontrip\"), \"validation failed.\");\r\n        bookings[index].driverAddress.transfer(bookings[index].totalCost);\r\n        bookings[index].status = \"completed\";\r\n        emit BookingCompleted(index);\r\n    }\r\n\r\n    function compareStrings(string memory a, string memory b) internal pure returns (bool) {\r\n        if(bytes(a).length != bytes(b).length) {\r\n            return false;\r\n        } else {\r\n            return keccak256(abi.encodePacked(a)) == keccak256(abi.encodePacked(b));\r\n        }\r\n    }\r\n}",
  "sourcePath": "C:\\Users\\trietdvn\\Github\\kryptopoo\\GoUber\\contracts\\GoUber.sol",
  "compiler": {
    "name": "solc",
    "version": "0.4.24+commit.e67f0147.Emscripten.clang"
  },
  "schemaVersion": "2.0.1",
  "updatedAt": "2018-12-09T03:40:28.132Z"
}