{
  "contractName": "GoUber",
  "abi": [
    {
      "anonymous": false,
      "inputs": [
        {
          "indexed": false,
          "name": "bookingIndex",
          "type": "uint256"
        }
      ],
      "name": "BookingCreated",
      "type": "event"
    },
    {
      "anonymous": false,
      "inputs": [
        {
          "indexed": false,
          "name": "bookingIndex",
          "type": "uint256"
        }
      ],
      "name": "BookingAccepted",
      "type": "event"
    },
    {
      "anonymous": false,
      "inputs": [
        {
          "indexed": false,
          "name": "bookingIndex",
          "type": "uint256"
        }
      ],
      "name": "BookingCompleted",
      "type": "event"
    },
    {
      "anonymous": false,
      "inputs": [
        {
          "indexed": false,
          "name": "bookingIndex",
          "type": "uint256"
        }
      ],
      "name": "BookingCancelled",
      "type": "event"
    },
    {
      "constant": false,
      "inputs": [
        {
          "name": "passengerInfo",
          "type": "string"
        },
        {
          "name": "originLocation",
          "type": "string"
        },
        {
          "name": "destLocation",
          "type": "string"
        },
        {
          "name": "distance",
          "type": "uint256"
        },
        {
          "name": "totalCost",
          "type": "uint256"
        }
      ],
      "name": "createBooking",
      "outputs": [],
      "payable": true,
      "stateMutability": "payable",
      "type": "function"
    },
    {
      "constant": true,
      "inputs": [
        {
          "name": "index",
          "type": "uint256"
        }
      ],
      "name": "getBooking",
      "outputs": [
        {
          "name": "",
          "type": "address"
        },
        {
          "name": "",
          "type": "string"
        },
        {
          "name": "",
          "type": "address"
        },
        {
          "name": "",
          "type": "string"
        },
        {
          "name": "",
          "type": "uint256"
        },
        {
          "name": "",
          "type": "string"
        },
        {
          "name": "",
          "type": "string"
        },
        {
          "name": "",
          "type": "uint256"
        },
        {
          "name": "",
          "type": "string"
        }
      ],
      "payable": false,
      "stateMutability": "view",
      "type": "function"
    },
    {
      "constant": true,
      "inputs": [],
      "name": "getBookingCount",
      "outputs": [
        {
          "name": "",
          "type": "uint256"
        }
      ],
      "payable": false,
      "stateMutability": "view",
      "type": "function"
    },
    {
      "constant": false,
      "inputs": [
        {
          "name": "index",
          "type": "uint256"
        }
      ],
      "name": "cancelBooking",
      "outputs": [],
      "payable": false,
      "stateMutability": "nonpayable",
      "type": "function"
    },
    {
      "constant": false,
      "inputs": [
        {
          "name": "index",
          "type": "uint256"
        },
        {
          "name": "driverInfo",
          "type": "string"
        }
      ],
      "name": "acceptBooking",
      "outputs": [],
      "payable": false,
      "stateMutability": "nonpayable",
      "type": "function"
    },
    {
      "constant": false,
      "inputs": [
        {
          "name": "index",
          "type": "uint256"
        }
      ],
      "name": "completeBooking",
      "outputs": [],
      "payable": false,
      "stateMutability": "nonpayable",
      "type": "function"
    }
  ],
  "bytecode": "0x608060405234801561001057600080fd5b50611b02806100206000396000f300608060405260043610610078576000357c0100000000000000000000000000000000000000000000000000000000900463ffffffff1680630dca825e1461007d57806310272e18146100aa5780631a2b3431146101a65780636a5c841a146101d3578063d67bad5a1461049d578063d861c24414610510575b600080fd5b34801561008957600080fd5b506100a86004803603810190808035906020019092919050505061053b565b005b6101a4600480360381019080803590602001908201803590602001908080601f0160208091040260200160405190810160405280939291908181526020018383808284378201915050505050509192919290803590602001908201803590602001908080601f0160208091040260200160405190810160405280939291908181526020018383808284378201915050505050509192919290803590602001908201803590602001908080601f01602080910402602001604051908101604052809392919081815260200183838082843782019150505050505091929192908035906020019092919080359060200190929190505050610a15565b005b3480156101b257600080fd5b506101d160048036038101908080359060200190929190505050610ca6565b005b3480156101df57600080fd5b506101fe60048036038101908080359060200190929190505050610f8f565b604051808a73ffffffffffffffffffffffffffffffffffffffff1673ffffffffffffffffffffffffffffffffffffffff168152602001806020018973ffffffffffffffffffffffffffffffffffffffff1673ffffffffffffffffffffffffffffffffffffffff1681526020018060200188815260200180602001806020018781526020018060200186810386528e818151815260200191508051906020019080838360005b838110156102be5780820151818401526020810190506102a3565b50505050905090810190601f1680156102eb5780820380516001836020036101000a031916815260200191505b5086810385528c818151815260200191508051906020019080838360005b83811015610324578082015181840152602081019050610309565b50505050905090810190601f1680156103515780820380516001836020036101000a031916815260200191505b5086810384528a818151815260200191508051906020019080838360005b8381101561038a57808201518184015260208101905061036f565b50505050905090810190601f1680156103b75780820380516001836020036101000a031916815260200191505b50868103835289818151815260200191508051906020019080838360005b838110156103f05780820151818401526020810190506103d5565b50505050905090810190601f16801561041d5780820380516001836020036101000a031916815260200191505b50868103825287818151815260200191508051906020019080838360005b8381101561045657808201518184015260208101905061043b565b50505050905090810190601f1680156104835780820380516001836020036101000a031916815260200191505b509e50505050505050505050505050505060405180910390f35b3480156104a957600080fd5b5061050e60048036038101908080359060200190929190803590602001908201803590602001908080601f0160208091040260200160405190810160405280939291908181526020018383808284378201915050505050509192919290505050611425565b005b34801561051c57600080fd5b506105256116d8565b6040518082815260200191505060405180910390f35b60008181548110151561054a57fe5b90600052602060002090600a020160000160009054906101000a900473ffffffffffffffffffffffffffffffffffffffff1673ffffffffffffffffffffffffffffffffffffffff163373ffffffffffffffffffffffffffffffffffffffff161480156106a957506106a86000828154811015156105c357fe5b90600052602060002090600a02016009018054600181600116156101000203166002900480601f0160208091040260200160405190810160405280929190818152602001828054600181600116156101000203166002900480156106685780601f1061063d57610100808354040283529160200191610668565b820191906000526020600020905b81548152906001019060200180831161064b57829003601f168201915b50505050506040805190810160405280600381526020017f6e657700000000000000000000000000000000000000000000000000000000008152506116e4565b5b15156106b457600080fd5b6000818154811015156106c357fe5b90600052602060002090600a020160000160009054906101000a900473ffffffffffffffffffffffffffffffffffffffff1673ffffffffffffffffffffffffffffffffffffffff166108fc60008381548110151561071d57fe5b90600052602060002090600a0201600801549081150290604051600060405180830381858888f1935050505015801561075a573d6000803e3d6000fd5b506000808281548110151561076b57fe5b90600052602060002090600a0201600801819055506040805190810160405280600981526020017f63616e63656c6c656400000000000000000000000000000000000000000000008152506000828154811015156107c557fe5b90600052602060002090600a020160090190805190602001906107e99291906118aa565b506000818154811015156107f957fe5b90600052602060002090600a020160008281548110151561081657fe5b90600052602060002090600a02016000820160009054906101000a900473ffffffffffffffffffffffffffffffffffffffff168160000160006101000a81548173ffffffffffffffffffffffffffffffffffffffff021916908373ffffffffffffffffffffffffffffffffffffffff160217905550600182018160010190805460018160011615610100020316600290046108b292919061192a565b506002820160009054906101000a900473ffffffffffffffffffffffffffffffffffffffff168160020160006101000a81548173ffffffffffffffffffffffffffffffffffffffff021916908373ffffffffffffffffffffffffffffffffffffffff1602179055506003820181600301908054600181600116156101000203166002900461094192919061192a565b50600482015481600401556005820181600501908054600181600116156101000203166002900461097392919061192a565b506006820181600601908054600181600116156101000203166002900461099b92919061192a565b506007820154816007015560088201548160080155600982018160090190805460018160011615610100020316600290046109d792919061192a565b509050507ff774c001cb52a3566b767ed6e37c92706acb2b80a3ff6049e2849cd62725d085816040518082815260200191505060405180910390a150565b8034148015610a245750600082115b8015610a305750600081115b1515610a3b57600080fd5b6000610140604051908101604052803373ffffffffffffffffffffffffffffffffffffffff168152602001878152602001600073ffffffffffffffffffffffffffffffffffffffff168152602001602060405190810160405280600081525081526020014281526020018681526020018581526020018381526020018381526020016040805190810160405280600381526020017f6e657700000000000000000000000000000000000000000000000000000000008152508152509080600181540180825580915050906001820390600052602060002090600a02016000909192909190915060008201518160000160006101000a81548173ffffffffffffffffffffffffffffffffffffffff021916908373ffffffffffffffffffffffffffffffffffffffff1602179055506020820151816001019080519060200190610b849291906119b1565b5060408201518160020160006101000a81548173ffffffffffffffffffffffffffffffffffffffff021916908373ffffffffffffffffffffffffffffffffffffffff1602179055506060820151816003019080519060200190610be89291906119b1565b506080820151816004015560a0820151816005019080519060200190610c0f9291906119b1565b5060c0820151816006019080519060200190610c2c9291906119b1565b5060e082015181600701556101008201518160080155610120820151816009019080519060200190610c5f9291906119b1565b505050507feff0c44eb012c0a3b8af8da61b04c9c7ee828fe9c5746869998c63319a21067c6000805490506040518082815260200191505060405180910390a15050505050565b600081815481101515610cb557fe5b90600052602060002090600a020160000160009054906101000a900473ffffffffffffffffffffffffffffffffffffffff1673ffffffffffffffffffffffffffffffffffffffff163373ffffffffffffffffffffffffffffffffffffffff16148015610e145750610e13600082815481101515610d2e57fe5b90600052602060002090600a02016009018054600181600116156101000203166002900480601f016020809104026020016040519081016040528092919081815260200182805460018160011615610100020316600290048015610dd35780601f10610da857610100808354040283529160200191610dd3565b820191906000526020600020905b815481529060010190602001808311610db657829003601f168201915b50505050506040805190810160405280600681526020017f6f6e7472697000000000000000000000000000000000000000000000000000008152506116e4565b5b1515610e1f57600080fd5b600081815481101515610e2e57fe5b90600052602060002090600a020160020160009054906101000a900473ffffffffffffffffffffffffffffffffffffffff1673ffffffffffffffffffffffffffffffffffffffff166108fc600083815481101515610e8857fe5b90600052602060002090600a0201600801549081150290604051600060405180830381858888f19350505050158015610ec5573d6000803e3d6000fd5b506040805190810160405280600981526020017f636f6d706c657465640000000000000000000000000000000000000000000000815250600082815481101515610f0b57fe5b90600052602060002090600a02016009019080519060200190610f2f9291906118aa565b5060008082815481101515610f4057fe5b90600052602060002090600a0201600801819055507fe70f5cb5ecde9644c195a97cf45a506de023d1d170cd972f04441fafd993f150816040518082815260200191505060405180910390a150565b6000606060006060600060608060006060610fa8611a31565b60008b815481101515610fb757fe5b90600052602060002090600a020161014060405190810160405290816000820160009054906101000a900473ffffffffffffffffffffffffffffffffffffffff1673ffffffffffffffffffffffffffffffffffffffff1673ffffffffffffffffffffffffffffffffffffffff168152602001600182018054600181600116156101000203166002900480601f0160208091040260200160405190810160405280929190818152602001828054600181600116156101000203166002900480156110c15780601f10611096576101008083540402835291602001916110c1565b820191906000526020600020905b8154815290600101906020018083116110a457829003601f168201915b505050505081526020016002820160009054906101000a900473ffffffffffffffffffffffffffffffffffffffff1673ffffffffffffffffffffffffffffffffffffffff1673ffffffffffffffffffffffffffffffffffffffff168152602001600382018054600181600116156101000203166002900480601f0160208091040260200160405190810160405280929190818152602001828054600181600116156101000203166002900480156111b95780601f1061118e576101008083540402835291602001916111b9565b820191906000526020600020905b81548152906001019060200180831161119c57829003601f168201915b5050505050815260200160048201548152602001600582018054600181600116156101000203166002900480601f0160208091040260200160405190810160405280929190818152602001828054600181600116156101000203166002900480156112655780601f1061123a57610100808354040283529160200191611265565b820191906000526020600020905b81548152906001019060200180831161124857829003601f168201915b50505050508152602001600682018054600181600116156101000203166002900480601f0160208091040260200160405190810160405280929190818152602001828054600181600116156101000203166002900480156113075780601f106112dc57610100808354040283529160200191611307565b820191906000526020600020905b8154815290600101906020018083116112ea57829003601f168201915b505050505081526020016007820154815260200160088201548152602001600982018054600181600116156101000203166002900480601f0160208091040260200160405190810160405280929190818152602001828054600181600116156101000203166002900480156113bd5780601f10611392576101008083540402835291602001916113bd565b820191906000526020600020905b8154815290600101906020018083116113a057829003601f168201915b5050505050815250509050806000015181602001518260400151836060015184608001518560a001518660c001518760e00151886101200151879750859550839350829250809050995099509950995099509950995099509950509193959799909294969850565b600073ffffffffffffffffffffffffffffffffffffffff1660008381548110151561144c57fe5b90600052602060002090600a020160020160009054906101000a900473ffffffffffffffffffffffffffffffffffffffff1673ffffffffffffffffffffffffffffffffffffffff1614801561159457506115936000838154811015156114ae57fe5b90600052602060002090600a02016009018054600181600116156101000203166002900480601f0160208091040260200160405190810160405280929190818152602001828054600181600116156101000203166002900480156115535780601f1061152857610100808354040283529160200191611553565b820191906000526020600020905b81548152906001019060200180831161153657829003601f168201915b50505050506040805190810160405280600381526020017f6e657700000000000000000000000000000000000000000000000000000000008152506116e4565b5b151561159f57600080fd5b336000838154811015156115af57fe5b90600052602060002090600a020160020160006101000a81548173ffffffffffffffffffffffffffffffffffffffff021916908373ffffffffffffffffffffffffffffffffffffffff1602179055508060008381548110151561160e57fe5b90600052602060002090600a020160030190805190602001906116329291906118aa565b506040805190810160405280600681526020017f6f6e74726970000000000000000000000000000000000000000000000000000081525060008381548110151561167857fe5b90600052602060002090600a0201600901908051906020019061169c9291906118aa565b507fae49cce08cd6f27fffbd586d871496cddf9f50db908d9ca4cf48a84b88d55e6b826040518082815260200191505060405180910390a15050565b60008080549050905090565b6000815183511415156116fa57600090506118a4565b816040516020018082805190602001908083835b602083101515611733578051825260208201915060208101905060208303925061170e565b6001836020036101000a0380198251168184511680821785525050505050509050019150506040516020818303038152906040526040518082805190602001908083835b60208310151561179c5780518252602082019150602081019050602083039250611777565b6001836020036101000a038019825116818451168082178552505050505050905001915050604051809103902060001916836040516020018082805190602001908083835b60208310151561180657805182526020820191506020810190506020830392506117e1565b6001836020036101000a0380198251168184511680821785525050505050509050019150506040516020818303038152906040526040518082805190602001908083835b60208310151561186f578051825260208201915060208101905060208303925061184a565b6001836020036101000a0380198251168184511680821785525050505050509050019150506040518091039020600019161490505b92915050565b828054600181600116156101000203166002900490600052602060002090601f016020900481019282601f106118eb57805160ff1916838001178555611919565b82800160010185558215611919579182015b828111156119185782518255916020019190600101906118fd565b5b5090506119269190611ab1565b5090565b828054600181600116156101000203166002900490600052602060002090601f016020900481019282601f1061196357805485556119a0565b828001600101855582156119a057600052602060002091601f016020900482015b8281111561199f578254825591600101919060010190611984565b5b5090506119ad9190611ab1565b5090565b828054600181600116156101000203166002900490600052602060002090601f016020900481019282601f106119f257805160ff1916838001178555611a20565b82800160010185558215611a20579182015b82811115611a1f578251825591602001919060010190611a04565b5b509050611a2d9190611ab1565b5090565b61014060405190810160405280600073ffffffffffffffffffffffffffffffffffffffff16815260200160608152602001600073ffffffffffffffffffffffffffffffffffffffff168152602001606081526020016000815260200160608152602001606081526020016000815260200160008152602001606081525090565b611ad391905b80821115611acf576000816000905550600101611ab7565b5090565b905600a165627a7a723058200d5b06e5a315a79167fb727736b9ff6c673b2524a2c80573d05ae38baccc7d9b0029",
  "source": "pragma solidity ^0.4.24;\r\n\r\ncontract GoUber {\r\n    struct Booking {\r\n        address passengerAddress;\r\n        string passengerInfo;\r\n        address driverAddress;\r\n        string driverInfo;\r\n        uint createdAt;\r\n        string originLocation;\r\n        string destLocation;\r\n        uint totalCost;\r\n        uint passengerPaid;\r\n        string status; // new, cancelled, accepted, ontrip, completed\r\n    }\r\n   \r\n    Booking[] bookings;\r\n\r\n    // declare events\r\n    event BookingCreated(uint bookingIndex);\r\n    event BookingAccepted(uint bookingIndex);\r\n    event BookingCompleted(uint bookingIndex);\r\n    event BookingCancelled(uint bookingIndex);\r\n   \r\n    // passenger can create a booking\r\n    function createBooking(string memory passengerInfo, string memory originLocation, string memory destLocation, uint distance, uint totalCost) \r\n        public payable {\r\n        // validation\r\n        require(msg.value == totalCost && distance > 0 && totalCost > 0);\r\n\r\n        // Booking memory booking;\r\n        // booking.passengerAddress = msg.sender;\r\n        // booking.passengerInfo = passengerInfo;\r\n        // //booking.driverAddress = 0x0;\r\n        // booking.driverInfo = \"\";\r\n        // booking.createdAt = block.timestamp;\r\n        // booking.originLocation = originLocation;\r\n        // booking.destLocation = destLocation;\r\n        // booking.totalCost = totalCost;\r\n        // booking.passengerPaid = totalCost;\r\n        // booking.status = \"new\";\r\n        // bookings.push(booking);\r\n\r\n        bookings.push(Booking(msg.sender, passengerInfo, 0x0000000000000000000000000000000000000000, \"\", block.timestamp, originLocation, destLocation, totalCost, totalCost, \"new\"));\r\n\r\n        emit BookingCreated(bookings.length);\r\n    }\r\n\r\n    function getBooking(uint index) public view returns (address, string memory, address, string memory,\r\n        uint, string memory, string memory, uint, string memory) {\r\n        Booking memory book = bookings[index];\r\n        return (\r\n            book.passengerAddress,\r\n            book.passengerInfo,\r\n            book.driverAddress,\r\n            book.driverInfo,\r\n            book.createdAt,\r\n            book.originLocation,\r\n            book.destLocation,\r\n            book.totalCost,\r\n            book.status\r\n        );\r\n    }\r\n\r\n    // function getBooking(uint index) public view returns (address, string memory, address, string memory,\r\n    //     string memory, string memory, uint, string memory) {\r\n    //     return (\r\n    //         bookings[index].passengerAddress,\r\n    //         bookings[index].passengerInfo,\r\n    //         bookings[index].driverAddress,\r\n    //         bookings[index].driverInfo,\r\n    //         bookings[index].originLocation,\r\n    //         bookings[index].destLocation,\r\n    //         bookings[index].totalCost,\r\n    //         bookings[index].status\r\n    //     );\r\n    // }\r\n\r\n    function getBookingCount() public view returns(uint) {\r\n        return bookings.length;\r\n    }\r\n  \r\n    // passenger can cancel booking, cost will be refund\r\n    function cancelBooking(uint index) public {\r\n        // validation\r\n        require(msg.sender == bookings[index].passengerAddress && compareStrings(bookings[index].status, \"new\"));\r\n        bookings[index].passengerAddress.transfer(bookings[index].passengerPaid);\r\n        bookings[index].passengerPaid = 0;\r\n        bookings[index].status = \"cancelled\";\r\n        bookings[index] = bookings[index];\r\n        emit BookingCancelled(index);\r\n    }\r\n\r\n    // driver accepts booking created from passenger\r\n    function acceptBooking(uint index, string memory driverInfo) public {\r\n        // validation\r\n        require(bookings[index].driverAddress == 0x0000000000000000000000000000000000000000 && compareStrings(bookings[index].status, \"new\"));\r\n        bookings[index].driverAddress = msg.sender;\r\n        bookings[index].driverInfo = driverInfo;\r\n        bookings[index].status = \"ontrip\"; \r\n        emit BookingAccepted(index);\r\n    }\r\n\r\n    // passenger must to confirm trip completed\r\n    function completeBooking(uint index) public {\r\n        // // validation\r\n        require(msg.sender == bookings[index].passengerAddress && compareStrings(bookings[index].status, \"ontrip\"));\r\n        bookings[index].driverAddress.transfer(bookings[index].passengerPaid);\r\n        bookings[index].status = \"completed\";\r\n        bookings[index].passengerPaid = 0;\r\n        emit BookingCompleted(index);\r\n    }\r\n\r\n    function compareStrings(string memory a, string memory b) internal pure returns (bool) {\r\n        if(bytes(a).length != bytes(b).length) {\r\n            return false;\r\n        } else {\r\n            return keccak256(abi.encodePacked(a)) == keccak256(abi.encodePacked(b));\r\n        }\r\n    }\r\n}",
  "sourcePath": "C:\\Users\\trietdvn\\Github\\kryptopoo\\GoUber\\contracts\\GoUber.sol",
  "compiler": {
    "name": "solc",
    "version": "0.4.24+commit.e67f0147.Emscripten.clang"
  },
  "schemaVersion": "2.0.1",
  "updatedAt": "2018-12-07T15:40:03.645Z"
}