{
  "contractName": "GoUber",
  "abi": [
    {
      "constant": true,
      "inputs": [],
      "name": "bookingCount",
      "outputs": [
        {
          "name": "",
          "type": "uint256"
        }
      ],
      "payable": false,
      "stateMutability": "view",
      "type": "function"
    },
    {
      "anonymous": false,
      "inputs": [
        {
          "indexed": false,
          "name": "bookingIndex",
          "type": "uint256"
        }
      ],
      "name": "BookingCreated",
      "type": "event"
    },
    {
      "anonymous": false,
      "inputs": [
        {
          "indexed": false,
          "name": "bookingIndex",
          "type": "uint256"
        }
      ],
      "name": "BookingAccepted",
      "type": "event"
    },
    {
      "anonymous": false,
      "inputs": [
        {
          "indexed": false,
          "name": "bookingIndex",
          "type": "uint256"
        }
      ],
      "name": "BookingCompleted",
      "type": "event"
    },
    {
      "anonymous": false,
      "inputs": [
        {
          "indexed": false,
          "name": "bookingIndex",
          "type": "uint256"
        }
      ],
      "name": "BookingCancelled",
      "type": "event"
    },
    {
      "constant": false,
      "inputs": [
        {
          "name": "passengerInfo",
          "type": "string"
        },
        {
          "name": "originLocation",
          "type": "string"
        },
        {
          "name": "destLocation",
          "type": "string"
        },
        {
          "name": "distance",
          "type": "uint256"
        },
        {
          "name": "totalCost",
          "type": "uint256"
        }
      ],
      "name": "createBooking",
      "outputs": [],
      "payable": true,
      "stateMutability": "payable",
      "type": "function"
    },
    {
      "constant": true,
      "inputs": [
        {
          "name": "index",
          "type": "uint256"
        }
      ],
      "name": "getBooking",
      "outputs": [
        {
          "name": "",
          "type": "address"
        },
        {
          "name": "",
          "type": "string"
        },
        {
          "name": "",
          "type": "address"
        },
        {
          "name": "",
          "type": "string"
        },
        {
          "name": "",
          "type": "uint256"
        },
        {
          "name": "",
          "type": "string"
        },
        {
          "name": "",
          "type": "string"
        },
        {
          "name": "",
          "type": "uint256"
        },
        {
          "name": "",
          "type": "string"
        }
      ],
      "payable": false,
      "stateMutability": "view",
      "type": "function"
    },
    {
      "constant": true,
      "inputs": [],
      "name": "getBookingCount",
      "outputs": [
        {
          "name": "",
          "type": "uint256"
        }
      ],
      "payable": false,
      "stateMutability": "view",
      "type": "function"
    },
    {
      "constant": false,
      "inputs": [
        {
          "name": "index",
          "type": "uint256"
        }
      ],
      "name": "cancelBooking",
      "outputs": [],
      "payable": true,
      "stateMutability": "payable",
      "type": "function"
    },
    {
      "constant": false,
      "inputs": [
        {
          "name": "index",
          "type": "uint256"
        },
        {
          "name": "driverInfo",
          "type": "string"
        }
      ],
      "name": "acceptBooking",
      "outputs": [],
      "payable": false,
      "stateMutability": "nonpayable",
      "type": "function"
    },
    {
      "constant": false,
      "inputs": [
        {
          "name": "index",
          "type": "uint256"
        }
      ],
      "name": "completeBooking",
      "outputs": [],
      "payable": false,
      "stateMutability": "nonpayable",
      "type": "function"
    }
  ],
  "bytecode": "0x608060405234801561001057600080fd5b5061246e806100206000396000f300608060405260043610610083576000357c0100000000000000000000000000000000000000000000000000000000900463ffffffff1680630dca825e1461008857806310272e18146100a85780631a2b3431146101a45780636a5c841a146101d15780636d7591721461049b578063d67bad5a146104c6578063d861c24414610539575b600080fd5b6100a660048036038101908080359060200190929190505050610564565b005b6101a2600480360381019080803590602001908201803590602001908080601f0160208091040260200160405190810160405280939291908181526020018383808284378201915050505050509192919290803590602001908201803590602001908080601f0160208091040260200160405190810160405280939291908181526020018383808284378201915050505050509192919290803590602001908201803590602001908080601f01602080910402602001604051908101604052809392919081815260200183838082843782019150505050505091929192908035906020019092919080359060200190929190505050610c4c565b005b3480156101b057600080fd5b506101cf60048036038101908080359060200190929190505050610ef8565b005b3480156101dd57600080fd5b506101fc600480360381019080803590602001909291905050506115e0565b604051808a73ffffffffffffffffffffffffffffffffffffffff1673ffffffffffffffffffffffffffffffffffffffff168152602001806020018973ffffffffffffffffffffffffffffffffffffffff1673ffffffffffffffffffffffffffffffffffffffff1681526020018060200188815260200180602001806020018781526020018060200186810386528e818151815260200191508051906020019080838360005b838110156102bc5780820151818401526020810190506102a1565b50505050905090810190601f1680156102e95780820380516001836020036101000a031916815260200191505b5086810385528c818151815260200191508051906020019080838360005b83811015610322578082015181840152602081019050610307565b50505050905090810190601f16801561034f5780820380516001836020036101000a031916815260200191505b5086810384528a818151815260200191508051906020019080838360005b8381101561038857808201518184015260208101905061036d565b50505050905090810190601f1680156103b55780820380516001836020036101000a031916815260200191505b50868103835289818151815260200191508051906020019080838360005b838110156103ee5780820151818401526020810190506103d3565b50505050905090810190601f16801561041b5780820380516001836020036101000a031916815260200191505b50868103825287818151815260200191508051906020019080838360005b83811015610454578082015181840152602081019050610439565b50505050905090810190601f1680156104815780820380516001836020036101000a031916815260200191505b509e50505050505050505050505050505060405180910390f35b3480156104a757600080fd5b506104b0611a76565b6040518082815260200191505060405180910390f35b3480156104d257600080fd5b5061053760048036038101908080359060200190929190803590602001908201803590602001908080601f0160208091040260200160405190810160405280939291908181526020018383808284378201915050505050509192919290505050611a7c565b005b34801561054557600080fd5b5061054e61214b565b6040518082815260200191505060405180910390f35b61056c61231d565b60008281548110151561057b57fe5b90600052602060002090600a020161014060405190810160405290816000820160009054906101000a900473ffffffffffffffffffffffffffffffffffffffff1673ffffffffffffffffffffffffffffffffffffffff1673ffffffffffffffffffffffffffffffffffffffff168152602001600182018054600181600116156101000203166002900480601f0160208091040260200160405190810160405280929190818152602001828054600181600116156101000203166002900480156106855780601f1061065a57610100808354040283529160200191610685565b820191906000526020600020905b81548152906001019060200180831161066857829003601f168201915b505050505081526020016002820160009054906101000a900473ffffffffffffffffffffffffffffffffffffffff1673ffffffffffffffffffffffffffffffffffffffff1673ffffffffffffffffffffffffffffffffffffffff168152602001600382018054600181600116156101000203166002900480601f01602080910402602001604051908101604052809291908181526020018280546001816001161561010002031660029004801561077d5780601f106107525761010080835404028352916020019161077d565b820191906000526020600020905b81548152906001019060200180831161076057829003601f168201915b5050505050815260200160048201548152602001600582018054600181600116156101000203166002900480601f0160208091040260200160405190810160405280929190818152602001828054600181600116156101000203166002900480156108295780601f106107fe57610100808354040283529160200191610829565b820191906000526020600020905b81548152906001019060200180831161080c57829003601f168201915b50505050508152602001600682018054600181600116156101000203166002900480601f0160208091040260200160405190810160405280929190818152602001828054600181600116156101000203166002900480156108cb5780601f106108a0576101008083540402835291602001916108cb565b820191906000526020600020905b8154815290600101906020018083116108ae57829003601f168201915b505050505081526020016007820154815260200160088201548152602001600982018054600181600116156101000203166002900480601f0160208091040260200160405190810160405280929190818152602001828054600181600116156101000203166002900480156109815780601f1061095657610100808354040283529160200191610981565b820191906000526020600020905b81548152906001019060200180831161096457829003601f168201915b5050505050815250509050806000015173ffffffffffffffffffffffffffffffffffffffff163373ffffffffffffffffffffffffffffffffffffffff16148015610a0b5750610a0a8161012001516040805190810160405280600381526020017f6e65770000000000000000000000000000000000000000000000000000000000815250612157565b5b1515610a1657600080fd5b806000015173ffffffffffffffffffffffffffffffffffffffff166108fc8261010001519081150290604051600060405180830381858888f19350505050158015610a65573d6000803e3d6000fd5b506000816101000181815250506040805190810160405280600981526020017f63616e63656c6c6564000000000000000000000000000000000000000000000081525081610120018190525080600083815481101515610ac157fe5b90600052602060002090600a020160008201518160000160006101000a81548173ffffffffffffffffffffffffffffffffffffffff021916908373ffffffffffffffffffffffffffffffffffffffff1602179055506020820151816001019080519060200190610b3292919061239d565b5060408201518160020160006101000a81548173ffffffffffffffffffffffffffffffffffffffff021916908373ffffffffffffffffffffffffffffffffffffffff1602179055506060820151816003019080519060200190610b9692919061239d565b506080820151816004015560a0820151816005019080519060200190610bbd92919061239d565b5060c0820151816006019080519060200190610bda92919061239d565b5060e082015181600701556101008201518160080155610120820151816009019080519060200190610c0d92919061239d565b509050507ff774c001cb52a3566b767ed6e37c92706acb2b80a3ff6049e2849cd62725d085826040518082815260200191505060405180910390a15050565b610c5461231d565b8134148015610c635750600083115b8015610c6f5750600082115b1515610c7a57600080fd5b33816000019073ffffffffffffffffffffffffffffffffffffffff16908173ffffffffffffffffffffffffffffffffffffffff16815250508581602001819052506020604051908101604052806000815250816060018190525042816080018181525050848160a00181905250838160c00181905250818160e001818152505081816101000181815250506040805190810160405280600381526020017f6e657700000000000000000000000000000000000000000000000000000000008152508161012001819052506000819080600181540180825580915050906001820390600052602060002090600a02016000909192909190915060008201518160000160006101000a81548173ffffffffffffffffffffffffffffffffffffffff021916908373ffffffffffffffffffffffffffffffffffffffff1602179055506020820151816001019080519060200190610dd592919061239d565b5060408201518160020160006101000a81548173ffffffffffffffffffffffffffffffffffffffff021916908373ffffffffffffffffffffffffffffffffffffffff1602179055506060820151816003019080519060200190610e3992919061239d565b506080820151816004015560a0820151816005019080519060200190610e6092919061239d565b5060c0820151816006019080519060200190610e7d92919061239d565b5060e082015181600701556101008201518160080155610120820151816009019080519060200190610eb092919061239d565b505050507feff0c44eb012c0a3b8af8da61b04c9c7ee828fe9c5746869998c63319a21067c6000805490506040518082815260200191505060405180910390a1505050505050565b610f0061231d565b600082815481101515610f0f57fe5b90600052602060002090600a020161014060405190810160405290816000820160009054906101000a900473ffffffffffffffffffffffffffffffffffffffff1673ffffffffffffffffffffffffffffffffffffffff1673ffffffffffffffffffffffffffffffffffffffff168152602001600182018054600181600116156101000203166002900480601f0160208091040260200160405190810160405280929190818152602001828054600181600116156101000203166002900480156110195780601f10610fee57610100808354040283529160200191611019565b820191906000526020600020905b815481529060010190602001808311610ffc57829003601f168201915b505050505081526020016002820160009054906101000a900473ffffffffffffffffffffffffffffffffffffffff1673ffffffffffffffffffffffffffffffffffffffff1673ffffffffffffffffffffffffffffffffffffffff168152602001600382018054600181600116156101000203166002900480601f0160208091040260200160405190810160405280929190818152602001828054600181600116156101000203166002900480156111115780601f106110e657610100808354040283529160200191611111565b820191906000526020600020905b8154815290600101906020018083116110f457829003601f168201915b5050505050815260200160048201548152602001600582018054600181600116156101000203166002900480601f0160208091040260200160405190810160405280929190818152602001828054600181600116156101000203166002900480156111bd5780601f10611192576101008083540402835291602001916111bd565b820191906000526020600020905b8154815290600101906020018083116111a057829003601f168201915b50505050508152602001600682018054600181600116156101000203166002900480601f01602080910402602001604051908101604052809291908181526020018280546001816001161561010002031660029004801561125f5780601f106112345761010080835404028352916020019161125f565b820191906000526020600020905b81548152906001019060200180831161124257829003601f168201915b505050505081526020016007820154815260200160088201548152602001600982018054600181600116156101000203166002900480601f0160208091040260200160405190810160405280929190818152602001828054600181600116156101000203166002900480156113155780601f106112ea57610100808354040283529160200191611315565b820191906000526020600020905b8154815290600101906020018083116112f857829003601f168201915b5050505050815250509050806000015173ffffffffffffffffffffffffffffffffffffffff163373ffffffffffffffffffffffffffffffffffffffff1614801561139f575061139e8161012001516040805190810160405280600681526020017f6f6e747269700000000000000000000000000000000000000000000000000000815250612157565b5b15156113aa57600080fd5b806040015173ffffffffffffffffffffffffffffffffffffffff166108fc8261010001519081150290604051600060405180830381858888f193505050501580156113f9573d6000803e3d6000fd5b506040805190810160405280600981526020017f636f6d706c6574656400000000000000000000000000000000000000000000008152508161012001819052506000816101000181815250508060008381548110151561145557fe5b90600052602060002090600a020160008201518160000160006101000a81548173ffffffffffffffffffffffffffffffffffffffff021916908373ffffffffffffffffffffffffffffffffffffffff16021790555060208201518160010190805190602001906114c692919061239d565b5060408201518160020160006101000a81548173ffffffffffffffffffffffffffffffffffffffff021916908373ffffffffffffffffffffffffffffffffffffffff160217905550606082015181600301908051906020019061152a92919061239d565b506080820151816004015560a082015181600501908051906020019061155192919061239d565b5060c082015181600601908051906020019061156e92919061239d565b5060e0820151816007015561010082015181600801556101208201518160090190805190602001906115a192919061239d565b509050507fe70f5cb5ecde9644c195a97cf45a506de023d1d170cd972f04441fafd993f150826040518082815260200191505060405180910390a15050565b60006060600060606000606080600060606115f961231d565b60008b81548110151561160857fe5b90600052602060002090600a020161014060405190810160405290816000820160009054906101000a900473ffffffffffffffffffffffffffffffffffffffff1673ffffffffffffffffffffffffffffffffffffffff1673ffffffffffffffffffffffffffffffffffffffff168152602001600182018054600181600116156101000203166002900480601f0160208091040260200160405190810160405280929190818152602001828054600181600116156101000203166002900480156117125780601f106116e757610100808354040283529160200191611712565b820191906000526020600020905b8154815290600101906020018083116116f557829003601f168201915b505050505081526020016002820160009054906101000a900473ffffffffffffffffffffffffffffffffffffffff1673ffffffffffffffffffffffffffffffffffffffff1673ffffffffffffffffffffffffffffffffffffffff168152602001600382018054600181600116156101000203166002900480601f01602080910402602001604051908101604052809291908181526020018280546001816001161561010002031660029004801561180a5780601f106117df5761010080835404028352916020019161180a565b820191906000526020600020905b8154815290600101906020018083116117ed57829003601f168201915b5050505050815260200160048201548152602001600582018054600181600116156101000203166002900480601f0160208091040260200160405190810160405280929190818152602001828054600181600116156101000203166002900480156118b65780601f1061188b576101008083540402835291602001916118b6565b820191906000526020600020905b81548152906001019060200180831161189957829003601f168201915b50505050508152602001600682018054600181600116156101000203166002900480601f0160208091040260200160405190810160405280929190818152602001828054600181600116156101000203166002900480156119585780601f1061192d57610100808354040283529160200191611958565b820191906000526020600020905b81548152906001019060200180831161193b57829003601f168201915b505050505081526020016007820154815260200160088201548152602001600982018054600181600116156101000203166002900480601f016020809104026020016040519081016040528092919081815260200182805460018160011615610100020316600290048015611a0e5780601f106119e357610100808354040283529160200191611a0e565b820191906000526020600020905b8154815290600101906020018083116119f157829003601f168201915b5050505050815250509050806000015181602001518260400151836060015184608001518560a001518660c001518760e00151886101200151879750859550839350829250809050995099509950995099509950995099509950509193959799909294969850565b60015481565b611a8461231d565b600083815481101515611a9357fe5b90600052602060002090600a020161014060405190810160405290816000820160009054906101000a900473ffffffffffffffffffffffffffffffffffffffff1673ffffffffffffffffffffffffffffffffffffffff1673ffffffffffffffffffffffffffffffffffffffff168152602001600182018054600181600116156101000203166002900480601f016020809104026020016040519081016040528092919081815260200182805460018160011615610100020316600290048015611b9d5780601f10611b7257610100808354040283529160200191611b9d565b820191906000526020600020905b815481529060010190602001808311611b8057829003601f168201915b505050505081526020016002820160009054906101000a900473ffffffffffffffffffffffffffffffffffffffff1673ffffffffffffffffffffffffffffffffffffffff1673ffffffffffffffffffffffffffffffffffffffff168152602001600382018054600181600116156101000203166002900480601f016020809104026020016040519081016040528092919081815260200182805460018160011615610100020316600290048015611c955780601f10611c6a57610100808354040283529160200191611c95565b820191906000526020600020905b815481529060010190602001808311611c7857829003601f168201915b5050505050815260200160048201548152602001600582018054600181600116156101000203166002900480601f016020809104026020016040519081016040528092919081815260200182805460018160011615610100020316600290048015611d415780601f10611d1657610100808354040283529160200191611d41565b820191906000526020600020905b815481529060010190602001808311611d2457829003601f168201915b50505050508152602001600682018054600181600116156101000203166002900480601f016020809104026020016040519081016040528092919081815260200182805460018160011615610100020316600290048015611de35780601f10611db857610100808354040283529160200191611de3565b820191906000526020600020905b815481529060010190602001808311611dc657829003601f168201915b505050505081526020016007820154815260200160088201548152602001600982018054600181600116156101000203166002900480601f016020809104026020016040519081016040528092919081815260200182805460018160011615610100020316600290048015611e995780601f10611e6e57610100808354040283529160200191611e99565b820191906000526020600020905b815481529060010190602001808311611e7c57829003601f168201915b5050505050815250509050600073ffffffffffffffffffffffffffffffffffffffff16816040015173ffffffffffffffffffffffffffffffffffffffff16148015611f245750611f238161012001516040805190810160405280600381526020017f6e65770000000000000000000000000000000000000000000000000000000000815250612157565b5b1515611f2f57600080fd5b33816040019073ffffffffffffffffffffffffffffffffffffffff16908173ffffffffffffffffffffffffffffffffffffffff16815250508181606001819052506040805190810160405280600681526020017f6f6e74726970000000000000000000000000000000000000000000000000000081525081610120018190525080600084815481101515611fbf57fe5b90600052602060002090600a020160008201518160000160006101000a81548173ffffffffffffffffffffffffffffffffffffffff021916908373ffffffffffffffffffffffffffffffffffffffff160217905550602082015181600101908051906020019061203092919061239d565b5060408201518160020160006101000a81548173ffffffffffffffffffffffffffffffffffffffff021916908373ffffffffffffffffffffffffffffffffffffffff160217905550606082015181600301908051906020019061209492919061239d565b506080820151816004015560a08201518160050190805190602001906120bb92919061239d565b5060c08201518160060190805190602001906120d892919061239d565b5060e08201518160070155610100820151816008015561012082015181600901908051906020019061210b92919061239d565b509050507fae49cce08cd6f27fffbd586d871496cddf9f50db908d9ca4cf48a84b88d55e6b836040518082815260200191505060405180910390a1505050565b60008080549050905090565b60008151835114151561216d5760009050612317565b816040516020018082805190602001908083835b6020831015156121a65780518252602082019150602081019050602083039250612181565b6001836020036101000a0380198251168184511680821785525050505050509050019150506040516020818303038152906040526040518082805190602001908083835b60208310151561220f57805182526020820191506020810190506020830392506121ea565b6001836020036101000a038019825116818451168082178552505050505050905001915050604051809103902060001916836040516020018082805190602001908083835b6020831015156122795780518252602082019150602081019050602083039250612254565b6001836020036101000a0380198251168184511680821785525050505050509050019150506040516020818303038152906040526040518082805190602001908083835b6020831015156122e257805182526020820191506020810190506020830392506122bd565b6001836020036101000a0380198251168184511680821785525050505050509050019150506040518091039020600019161490505b92915050565b61014060405190810160405280600073ffffffffffffffffffffffffffffffffffffffff16815260200160608152602001600073ffffffffffffffffffffffffffffffffffffffff168152602001606081526020016000815260200160608152602001606081526020016000815260200160008152602001606081525090565b828054600181600116156101000203166002900490600052602060002090601f016020900481019282601f106123de57805160ff191683800117855561240c565b8280016001018555821561240c579182015b8281111561240b5782518255916020019190600101906123f0565b5b509050612419919061241d565b5090565b61243f91905b8082111561243b576000816000905550600101612423565b5090565b905600a165627a7a723058200dbf426e86e76fc578ab8cd4bfce072fb9e8462c560f29cd9d7290dcad7d03b50029",
  "source": "pragma solidity ^0.4.24;\r\n\r\ncontract GoUber {\r\n \r\n    struct Booking {\r\n        address passengerAddress;\r\n        string passengerInfo;\r\n        address driverAddress;\r\n        string driverInfo;\r\n        uint createdAt;\r\n        string originLocation;\r\n        string destLocation;\r\n        uint totalCost;\r\n        uint passengerPaid;\r\n        string status; // new, cancelled, accepted, ontrip, completed\r\n    }\r\n   \r\n    Booking[] bookingList;\r\n    uint public bookingCount;\r\n\r\n    // declare events\r\n    event BookingCreated(uint bookingIndex);\r\n    event BookingAccepted(uint bookingIndex);\r\n    event BookingCompleted(uint bookingIndex);\r\n    event BookingCancelled(uint bookingIndex);\r\n   \r\n    // passenger can create a booking\r\n    function createBooking(string memory passengerInfo, string memory originLocation, string memory destLocation, uint distance, uint totalCost) \r\n        public payable {\r\n\r\n        // validation\r\n        require(msg.value == totalCost && distance > 0 && totalCost > 0);\r\n\r\n        Booking memory booking;\r\n        booking.passengerAddress = msg.sender;\r\n        booking.passengerInfo = passengerInfo;\r\n        //booking.driverAddress = 0x0;\r\n        booking.driverInfo = \"\";\r\n        booking.createdAt = block.timestamp;\r\n        booking.originLocation = originLocation;\r\n        booking.destLocation = destLocation;\r\n        booking.totalCost = totalCost;\r\n        booking.passengerPaid = totalCost;\r\n        booking.status = \"new\";\r\n\r\n        bookingList.push(booking);\r\n\r\n        emit BookingCreated(bookingList.length);\r\n    }\r\n\r\n    function getBooking(uint index) public view returns (address, string memory, address, string memory,\r\n        uint, string memory, string memory, uint, string memory) {\r\n\r\n        Booking memory booking = bookingList[index];\r\n        return (\r\n            booking.passengerAddress,\r\n            booking.passengerInfo,\r\n            booking.driverAddress,\r\n            booking.driverInfo,\r\n            booking.createdAt,\r\n            booking.originLocation,\r\n            booking.destLocation,\r\n            booking.totalCost,\r\n            booking.status\r\n        );\r\n    }\r\n\r\n    function getBookingCount() public view returns(uint) {\r\n        return bookingList.length;\r\n    }\r\n  \r\n    // passenger can cancel booking, cost will be refund\r\n    function cancelBooking(uint index) public payable {\r\n        Booking memory booking = bookingList[index];\r\n\r\n        // validation\r\n        require(msg.sender == booking.passengerAddress && compareStrings(booking.status, \"new\"));\r\n       \r\n        booking.passengerAddress.transfer(booking.passengerPaid);\r\n        booking.passengerPaid = 0;\r\n        booking.status = \"cancelled\";\r\n\r\n        bookingList[index] = booking;\r\n\r\n        emit BookingCancelled(index);\r\n    }\r\n\r\n    // driver accepts booking created from passenger\r\n    function acceptBooking(uint index, string memory driverInfo) public {\r\n        Booking memory booking = bookingList[index];\r\n\r\n        // validation\r\n        require(booking.driverAddress == 0x0000000000000000000000000000000000000000 && compareStrings(booking.status, \"new\"));\r\n    \r\n        booking.driverAddress = msg.sender;\r\n        booking.driverInfo = driverInfo;\r\n        booking.status = \"ontrip\"; \r\n\r\n        bookingList[index] = booking;\r\n\r\n        emit BookingAccepted(index);\r\n    }\r\n\r\n    // passenger must to confirm trip completed\r\n    function completeBooking(uint index) public {\r\n        Booking memory booking = bookingList[index];\r\n\r\n        // validation\r\n        require(msg.sender == booking.passengerAddress && compareStrings(booking.status, \"ontrip\"));\r\n       \r\n        booking.driverAddress.transfer(booking.passengerPaid);\r\n        booking.status = \"completed\";\r\n        booking.passengerPaid = 0;\r\n\r\n        bookingList[index] = booking;\r\n\t\t\r\n        emit BookingCompleted(index);\r\n    }\r\n\r\n    function compareStrings(string memory a, string memory b) internal pure returns (bool) {\r\n        if(bytes(a).length != bytes(b).length) {\r\n            return false;\r\n        } else {\r\n            return keccak256(abi.encodePacked(a)) == keccak256(abi.encodePacked(b));\r\n        }\r\n    }\r\n}",
  "sourcePath": "C:\\Users\\trietdvn\\Github\\kryptopoo\\GoUber\\contracts\\GoUber.sol",
  "compiler": {
    "name": "solc",
    "version": "0.4.24+commit.e67f0147.Emscripten.clang"
  },
  "schemaVersion": "2.0.1",
  "updatedAt": "2018-12-06T00:25:26.367Z"
}